:100000000C946D000C9400000C9400000C94000003
:100010000C9400000C9400000C9400000C94000060
:100020000C9400000C9400000C9400000C94000050
:100030000C9400000C9400000C9400000C94000040
:100040000C9400000C9400000C9400000C94000030
:040050000C9400000C
:1000DA00BFE5BDBFB8E0BEBFBFEFB4BBBFEFB1BBAA
:1000EA0015E107EC0A95F1F71A95E1F7B8E3BF9322
:1000FA00D0DFADB7BEB71196ADBFBEBFBEE0BF93EE
:10010A00C8DFADB7BEB71196ADBFBEBFB1E0BF93F2
:10011A00C0DFADB7BEB71196ADBFBEBF15E107ECE4
:10012A000A95F1F71A95E1F7B6E0BF93B2DFADB7DA
:10013A00BEB71196ADBFBEBFB1E4BF9386DFADB700
:10014A00BEB71196ADBFBEBFB9E4BF937EDFADB7F0
:10015A00BEB71196ADBFBEBFB5E5BF9376DFADB7EB
:10016A00BEB71196ADBFBEBFB2E4BF936EDFADB7E7
:0C017A00BEB71196ADBFBEBFFFCFFFCFD8
:10009C00CF93DF93CDB7DEB72596088102BB05B3AE
:1000AC000E7F05BB0D7F05BB046005BB02E00A9506
:1000BC00F1F700000000B5B3BB7FB5BB12E009E05F
:0E00CC000A95F1F71A95E1F7DF91CF910895AB
:10005400CF93DF93CDB7DEB72596088102BB05B3F6
:10006400016005BB0D7F05BB046005BB02E00A957A
:10007400F1F700000000B5B3BB7FB5BB12E009E0A7
:0E0084000A95F1F71A95E1F7DF91CF910895F3
:0A00920005900D920197E1F7089523
:00000001FF
