:100000000C942F000C9400000C9400000C94000041
:100010000C9400000C9400000C9400000C94000060
:100020000C9400000C9400000C9400000C94000050
:100030000C9400000C9400000C9400000C94000040
:100040000C9400000C9400000C9400000C94000030
:040050000C9400000C
:10005E00BFE5BDBFB8E0BEBFB1E0B7BBB1E0B8BB56
:10006E0029E216E900E80A95F1F71A95E1F72A95C3
:10007E00D1F7B0E0B8BB29E216E900E80A95F1F72E
:0C008E001A95E1F72A95D1F7E9CFFFCFD2
:0A00540005900D920197E1F7089561
:00000001FF
