:100000000C942F000C9400000C9400000C94000041
:100010000C9400000C9400000C9400000C94000060
:100020000C9400000C9400000C9400000C94000050
:100030000C9400000C9400000C9400000C94000040
:100040000C9400000C9400000C9400000C94000030
:040050000C9400000C
:10005E00BFE5BDBFB8E0BEBFB5E5BABBB5E5BBBB3E
:10006E0029E216E900E80A95F1F71A95E1F72A95C3
:10007E00D1F7B0E0BBBB25E11BE40FEB0A95F1F71E
:0E008E001A95E1F72A95D1F70000E8CFFFCFD1
:0A00540005900D920197E1F7089561
:00000001FF
