:100000000C9438000C9400000C9400000C94000038
:100010000C9400000C9400000C9400000C94000060
:100020000C9400000C9400000C9400000C94000050
:100030000C9400000C9400000C9400000C94000040
:100040000C9400000C9400000C9400000C94000030
:040050000C9400000C
:10007000BFE5BDBFB8E0BEBFB2E0BABBB4E0B7BB3E
:10008000B8E0B4BBB6E1B1BBB2E0BBBB29E216E954
:1000900000E80A95F1F71A95E1F72A95D1F7DFDF25
:1000A00025E11BE40FEB0A95F1F71A95E1F72A9584
:1000B000D1F70000B4E0B8BB29E216E900E80A95E0
:1000C000F1F71A95E1F72A95D1F7C9DF25E11BE48D
:1000D0000FEB0A95F1F71A95E1F72A95D1F7000091
:1000E000B8E0B5BB29E216E900E80A95F1F71A95E0
:1000F000E1F72A95D1F7B3DF25E11BE40FEB0A9571
:10010000F1F71A95E1F72A95D1F70000B6E1B2BBF5
:1001100029E216E900E80A95F1F71A95E1F72A9520
:10012000D1F79DDF25E11BE40FEB0A95F1F71A9556
:0C013000E1F72A95D1F70000A7CFFFCF20
:10005E00B0E0BBBBB0E0B8BBB0E0B5BBB0E0B2BB8C
:02006E000895F3
:0A00540005900D920197E1F7089561
:00000001FF
